{
  "contractName": "helloWorld",
  "abi": [
    {
      "constant": true,
      "inputs": [],
      "name": "getGreeting",
      "outputs": [
        {
          "internalType": "string",
          "name": "",
          "type": "string"
        }
      ],
      "payable": false,
      "stateMutability": "pure",
      "type": "function"
    },
    {
      "constant": false,
      "inputs": [
        {
          "internalType": "string",
          "name": "_greeting",
          "type": "string"
        }
      ],
      "name": "setGreeting",
      "outputs": [],
      "payable": false,
      "stateMutability": "nonpayable",
      "type": "function"
    },
    {
      "constant": true,
      "inputs": [],
      "name": "Greet",
      "outputs": [
        {
          "internalType": "string",
          "name": "",
          "type": "string"
        }
      ],
      "payable": false,
      "stateMutability": "view",
      "type": "function"
    }
  ],
  "bytecode": "0x608060405234801561001057600080fd5b506103da806100206000396000f3fe608060405234801561001057600080fd5b50600436106100415760003560e01c80635ae5d4aa14610046578063a4136862146100c9578063fe50cc7214610184575b600080fd5b61004e610207565b6040518080602001828103825283818151815260200191508051906020019080838360005b8381101561008e578082015181840152602081019050610073565b50505050905090810190601f1680156100bb5780820380516001836020036101000a031916815260200191505b509250505060405180910390f35b610182600480360360208110156100df57600080fd5b81019080803590602001906401000000008111156100fc57600080fd5b82018360208201111561010e57600080fd5b8035906020019184600183028401116401000000008311171561013057600080fd5b91908080601f016020809104026020016040519081016040528093929190818152602001838380828437600081840152601f19601f8201169050808301925050505050505091929192905050506102a9565b005b61018c6102c3565b6040518080602001828103825283818151815260200191508051906020019080838360005b838110156101cc5780820151818401526020810190506101b1565b50505050905090810190601f1680156101f95780820380516001836020036101000a031916815260200191505b509250505060405180910390f35b606060008054600181600116156101000203166002900480601f01602080910402602001604051908101604052809291908181526020018280546001816001161561010002031660029004801561029f5780601f106102745761010080835404028352916020019161029f565b820191906000526020600020905b81548152906001019060200180831161028257829003601f168201915b5050505050905090565b80600090805190602001906102bf929190610300565b5050565b60606040518060400160405280600b81526020017f48656c6c6f20576f726c64000000000000000000000000000000000000000000815250905090565b828054600181600116156101000203166002900490600052602060002090601f016020900481019282601f1061034157805160ff191683800117855561036f565b8280016001018555821561036f579182015b8281111561036e578251825591602001919060010190610353565b5b50905061037c9190610380565b5090565b6103a291905b8082111561039e576000816000905550600101610386565b5090565b9056fea265627a7a723158203ff9ae1b52c627751aafc6858a30c70112e26222d50a2d183a2525282996869864736f6c63430005100032",
  "source": "pragma solidity ^0.5.0;\n\n\n/* define contract */\n\ncontract helloWorld {\n\n    /* define variables, all variables are stored on the blockchain */\n    string greeting;\n\n    function getGreeting() pure public returns(string memory) {\n        //greeting = 'Hello World';\n        return 'Hello World';\n    }\n\n    function setGreeting(string memory _greeting) public {\n        greeting = _greeting;\n    }\n\n    function Greet() view public returns (string memory) {\n        return greeting;\n    }\n\n}\n",
  "sourcePath": "/Users/yashmadhwal/Documents/Yash Madhwal/Ethereum/Hello_World_SC_Python/contracts/helloWorld.sol",
  "compiler": {
    "name": "solc",
    "version": "0.5.16+commit.9c3226ce.Emscripten.clang"
  },
  "schemaVersion": "3.2.4",
  "updatedAt": "2020-12-29T20:48:07.682Z",
  "networkType": "ethereum",
  "devdoc": {
    "methods": {}
  },
  "userdoc": {
    "methods": {}
  }
}